:020000040000FA
:10000000980199019B0185018601FF3093009400BE
:1000100064008316873081008312863084001408C0
:100020008000840313088000840A0030BF22A300EC
:100030000F30A10064000108031D1A2864000108A4
:1000400003191E28A10B1A289F206400121B512897
:10005000921F242812083839031D242894111218DD
:100060009415141123189218141514121219141639
:100070009F2012089A009F20120897001A089600E5
:100080009801990181309B009F2012089A009F20BF
:10009000120897001A0896009801990181309B0078
:1000A0002428120895009411121E94151412921E01
:1000B00014169F20121B252812089A0015181A17CB
:1000C000951C9A139F20121B2528120997001519B9
:1000D0001713951D9717970A1708971B7228171B58
:1000E00040307428171FBF3097001A089A1B7B28CE
:1000F0001A1B40307D281A1FBF30960098019901C5
:1001000081309B009F2014159416121B2528231C58
:100110008D28921A1411121A941212080F39031909
:1001200024289219F038FF3A013E9D009C019E015F
:100130009F018130A0009F20121B252824286400E5
:10014000BB20A622851C9F2802309000BB206400A3
:10015000900BA6280830910008309000BB20900B2F
:10016000AE280310851C0314920C910BAC2864007C
:100170008518B72808002218C628000022141B087A
:10018000031DCE282008031DD828E22822102008AD
:10019000031DD5281B08031DD128E22800000000FC
:1001A0000000E92007300000E32800000000000004
:1001B000A31CDF28C821000000000630E328A003AC
:1001C0001030E3281130A10064000000A10BE428E6
:1001D00008009B03231C53291608031910299807AC
:1001E000961B0129981F15299813941BFC28941C11
:1001F0009417941894101D2994189413941C941413
:100200001E29981B16299817941B0B2994189417CC
:10021000941C94141E29941C9413941894101F2950
:1002200000000000000000000000000000000000CE
:10023000000000000000000000000000000017089F
:10024000031943299907971B3429991F48299913A2
:10025000141B2F2914181417141C14145029141CBF
:100260001413141814105129991B49299917141B98
:100270003E29141C1417141814105129141814139F
:10028000141C14145229000000000000000000009B
:10029000000000000000000000000000000000005E
:1002A00000000000BA2900001608031978299807F1
:1002B000961B6929981F7D299813941B6429141F84
:1002C0009417141B14138529141B9413141F14174B
:1002D0008629981B7E299817941B7329141B941741
:1002E000141F14178629141F9413141B1413872921
:1002F00000000000000000000000000000000000FE
:10030000000000000000000000000000640017086A
:100310000319AB299907971B9C29991FB029991399
:100320009418972914189414141C1414B829141C24
:10033000941014181410B929991BB12999179418FD
:10034000A629141C941414181410B9291418941004
:10035000141C1414BA290000000000000000000062
:10036000000000000000000000000000000000008D
:10037000000064001408800008000730A10000009D
:100380000000A10BBF290000000000000000BA29F6
:10039000A003231C322A1C080319EF299E079C1B6B
:1003A000E0299E1FF4299E131319DB29131E131530
:1003B000131A1312FC29131A1311131E1316FD29F5
:1003C0009E1BF5299E171319EA29131A1315131EDC
:1003D0001316FD29131E1311131A1312FE29000000
:1003E000000000000000000000000000000000000D
:1003F0000000000000000000000000001D080319BC
:10040000222A9F079D1B132A9F1F272A9F13131819
:100410000E2A93191314931D93152F2A931D13104D
:1004200093199311302A9F1B282A9F1713181D2AEE
:10043000931D131493199311302A93191310931DBC
:100440009315312A000000000000000000000000A9
:10045000000000000000000000000000000000009C
:100460000000992A00001C080319572A9E079C1BAC
:10047000482A9E1F5C2A9E131319432A131C131526
:1004800013181310642A13181311131C1314652A5C
:100490009E1B5D2A9E171319522A13181315131C3D
:1004A0001314652A131C131113181310662A000065
:1004B000000000000000000000000000000000003C
:1004C0000000000000000000000064001D08031987
:1004D0008A2A9F079D1B7B2A9F1F8F2A9F13131A0F
:1004E000762A93191316931D9315972A931D1312A9
:1004F00093199311982A9F1B902A9F17131A852AE4
:10050000931D131693199311982A93191312931D7F
:100510009315992A00000000000000000000000070
:1005200000000000000000000000000000000000CB
:100530006400130884038000840A08000830A100C6
:1005400000000000A10BA02A0000992A141EB12A65
:10055000001600000000061AB12A96019701FF302C
:100560008000941E0800801600000000861A080013
:100570009C019D018403FF308000840A08008900EB
:0A058000831608148312080808000F
:02400E00F53F7C
:00000001FF
